:020000040800F2
:100000000000022079FD0008C9FD0008C9FD0008B4
:10001000C9FD0008C9FD0008C9FD00080000000076
:10002000000000000000000000000000C9FD000802
:10003000C9FD000800000000C9FD000887D90008BC
:10004000C9FD0008C9FD0008C9FD0008C9FD000878
:10005000C9FD0008C9FD00087DDA000883DA000840
:1000600089DA00088FDA000895DA0008C9FD00086F
:10007000C9FD0008C9FD0008C9FD0008C9FD000848
:10008000C9FD0008C9FD0008C9FD00080000000006
:100090000000000000000000000000009BDA0008E3
:1000A00039D50008B1D400084DD50008D5D40008D2
:1000B000E9D40008FDD4000811D50008E56C00085B
:1000C000F16C0008FD6C0008096D0008C9FD00080E
:1000D000C9FD000871E6000889E60008000000007C
:1000E000C3DA0008C9FD0008C9FD000800000000CF
:1000F000000000000000000000000000C9FD000832
:1001000000000000C9FD000825D50008C9FD000851
:1001100000000000000000000000000000000000DF
:10012000C9FD0008C9FD0008C9FD0008C9FD000897
:10013000C9FD0008000000000000000000000000F1
:10014000000000000000000000000000C9FD0008E1
:10015000C9FD0008C9FD0008C9FD0008A5E60008A2
:10016000156D0008216D000800000000000000006F
:10017000000000000000000000000000000000007F
:1001800000000000C9FD00080000000000000000A1
:08019000C9FD0008C9FD0008CB
:1001A00010F8012B11F8013B012A28BF9A42F7D021
:1001B000D01A7047034613F8012B002AFBD1181AF6
:1001C000013870470000000000000000000000003F
:1001D00001F0FF01102A2BDB10F0070F08D010F8F8
:1001E000013B013A8B422DD010F0070F42B3F6D1FC
:1001F000F0B441EA012141EA014122F007047FF015
:1002000000070023F0E80256083C85EA010586EA6B
:10021000010685FA47F5A3FA87F586FA47F6A5FAA7
:1002200087F68EB9EED1F0BC01F0FF0102F00702B3
:1002300032B110F8013B013A83EA010313B1F8D15E
:100240000020704701387047002D06BF354603383F
:10025000073815F0010F07D1013015F4807F02BF78
:10026000013015F4C03F0130F0BC0138704700BFC9
:1002700081F0004102E000BF83F0004330B54FEA57
:1002800041044FEA430594EA050F08BF90EA020FC4
:100290001FBF54EA000C55EA020C7FEA645C7FEA57
:1002A000655C00F0E2804FEA5454D4EB5555B8BF7A
:1002B0006D420CDD2C4480EA020281EA030382EAEB
:1002C000000083EA010180EA020281EA0303362D7D
:1002D00088BF30BD11F0004F4FEA01314FF4801C50
:1002E0004CEA113102D0404261EB410113F0004F62
:1002F0004FEA03334CEA133302D0524263EB430319
:1003000094EA050F00F0A780A4F10104D5F1200EB6
:100310000DDB02FA0EFC22FA05F2801841F1000111
:1003200003FA0EF2801843FA05F359410EE0A5F1E5
:1003300020050EF1200E012A03FA0EFC28BF4CF016
:10034000020C43FA05F3C01851EBE37101F00045CC
:1003500007D54FF0000EDCF1000C7EEB00006EEBD9
:100360000101B1F5801F1BD3B1F5001F0CD3490863
:100370005FEA30004FEA3C0C04F101044FEA4452BA
:1003800012F5800F80F09A80BCF1004F08BF5FEA41
:10039000500C50F1000041EB045141EA050130BD21
:1003A0005FEA4C0C404141EB0101013C28BFB1F533
:1003B000801FE9D291F0000F04BF01460020B1FA7E
:1003C00081F308BF2033A3F10B03B3F120020CDA51
:1003D0000C3208DD02F1140CC2F10C0201FA0CF02F
:1003E00021FA02F10CE002F11402D8BFC2F1200C94
:1003F00001FA02F120FA0CFCDCBF41EA0C0190404A
:10040000E41AA2BF01EB0451294330BD6FEA040492
:100410001F3C1CDA0C340EDC04F11404C4F120027D
:1004200020FA04F001FA02F340EA030021FA04F38F
:1004300045EA030130BDC4F10C04C4F1200220FAE6
:1004400002F001FA04F340EA0300294630BD21FA24
:1004500004F0294630BD94F0000F83F4801306BFEA
:1004600081F480110134013D4EE77FEA645C18BFDE
:100470007FEA655C29D094EA050F08BF90EA020F75
:1004800005D054EA000C04BF1946104630BD91EA6D
:10049000030F1EBF0021002030BD5FEA545C05D170
:1004A0004000494128BF41F0004130BD14F58004AF
:1004B0003CBF01F5801130BD01F0004545F0FE4123
:1004C00041F470014FF0000030BD7FEA645C1ABF58
:1004D000194610467FEA655C1CBF0B46024650EA8F
:1004E000013406BF52EA033591EA030F41F40021BB
:1004F00030BD00BF90F0000F04BF0021704730B541
:100500004FF4806404F132044FF000054FF0000115
:1005100050E700BF90F0000F04BF0021704730B5D6
:100520004FF4806404F1320410F0004548BF4042AB
:100530004FF000013EE700BF42004FEAE2014FEA00
:1005400031014FEA02701FBF12F07F4393F07F4FDB
:1005500081F06051704732F07F4208BF704793F0DE
:100560007F4F04BF41F40021704730B54FF46074F1
:1005700001F0004521F000411CE700BF50EA0102F4
:1005800008BF704730B54FF000050AE050EA01029D
:1005900008BF704730B511F0004502D5404261EB0D
:1005A00041014FF4806404F132045FEA915C3FF44E
:1005B000D8AE4FF003025FEADC0C18BF03325FEAEB
:1005C000DC0C18BF033202EBDC02C2F1200300FA9C
:1005D00003FC20FA02F001FA03FE40EA0E0021FAC1
:1005E00002F11444BDE600BF70B54FF0FF0C4CF4AF
:1005F000E06C1CEA11541DBF1CEA135594EA0C0F61
:1006000095EA0C0F00F0DEF82C4481EA030621EA9B
:100610004C5123EA4C5350EA013518BF52EA0335D6
:1006200041F4801143F4801338D0A0FB02CE4FF088
:100630000005E1FB02E506F00042E0FB03E54FF0B8
:100640000006E1FB03569CF0000F18BF4EF0010EB0
:10065000A4F1FF04B6F5007F64F5407404D25FEAAC
:100660004E0E6D4146EB060642EAC62141EA55515F
:100670004FEAC52040EA5E504FEACE2EB4F1FD0CA1
:1006800088BFBCF5E06F1ED8BEF1004F08BF5FEA1F
:10069000500E50F1000041EB045170BD06F00046D1
:1006A00046EA010140EA020081EA0301B4EB5C047E
:1006B000C2BFD4EB0C0541EA045170BD41F4801176
:1006C0004FF0000E013C00F3AB8014F1360FDEBF9B
:1006D000002001F0004170BDC4F10004203C35DA77
:1006E0000C341BDC04F11404C4F1200500FA05F3FA
:1006F00020FA04F001FA05F240EA020001F000429B
:1007000021F0004110EBD37021FA04F642EB060110
:100710005EEA430E08BF20EAD37070BDC4F10C043A
:10072000C4F1200500FA04F320FA05F001FA04F2FE
:1007300040EA020001F0004110EBD37041F10001EA
:100740005EEA430E08BF20EAD37070BDC4F12005F5
:1007500000FA05F24EEA020E20FA04F301FA05F25D
:1007600043EA020321FA04F001F0004121FA04F205
:1007700020EA020000EBD3705EEA430E08BF20EAD5
:10078000D37070BD94F0000F0FD101F0004640000F
:1007900041EB010111F4801F08BF013CF7D041EA91
:1007A000060195F0000F18BF704703F00046520095
:1007B00043EB030313F4801F08BF013DF7D043EA66
:1007C0000603704794EA0C0F0CEA135518BF95EA1C
:1007D0000C0F0CD050EA410618BF52EA4306D1D1A3
:1007E00081EA030101F000414FF0000070BD50EAC2
:1007F000410606BF1046194652EA430619D094EA4C
:100800000C0F02D150EA013613D195EA0C0F05D135
:1008100052EA03361CBF104619460AD181EA030189
:1008200001F0004141F0FE4141F470014FF0000041
:1008300070BD41F0FE4141F4780170BD70B54FF0DC
:10084000FF0C4CF4E06C1CEA11541DBF1CEA13555C
:1008500094EA0C0F95EA0C0F00F0A7F8A4EB05043E
:1008600081EA030E52EA03354FEA013100F0888035
:100870004FEA03334FF0805545EA131343EA1263FE
:100880004FEA022245EA111545EA10654FEA0026B3
:100890000EF000419D4208BF964244F1FD0404F56C
:1008A000407402D25B084FEA3202B61A65EB0305C8
:1008B0005B084FEA32024FF480104FF4002CB6EB85
:1008C000020E75EB030E22BFB61A754640EA0C0005
:1008D0005B084FEA3202B6EB020E75EB030E22BF45
:1008E000B61A754640EA5C005B084FEA3202B6EB86
:1008F000020E75EB030E22BFB61A754640EA9C0045
:100900005B084FEA3202B6EB020E75EB030E22BF14
:10091000B61A754640EADC0055EA060E18D04FEAD2
:10092000051545EA16754FEA06164FEAC30343EA72
:1009300052734FEAC2025FEA1C1CC0D111F4801F3F
:100940000BD141EA00014FF000004FF0004CB6E738
:1009500011F4801F04BF01430020B4F1FD0C88BFD7
:10096000BCF5E06F3FF6AFAEB5EB030C04BFB6EBE2
:10097000020C5FEA500C50F1000041EB045170BDD5
:100980000EF0004E4EEA113114EB5C04C2BFD4EB02
:100990000C0541EA045170BD41F480114FF0000E86
:1009A000013C90E645EA060E8DE60CEA135594EA02
:1009B0000C0F08BF95EA0C0F3FF43BAF94EA0C0F05
:1009C0000AD150EA01347FF434AF95EA0C0F7FF47A
:1009D00025AF104619462CE795EA0C0F06D152EACE
:1009E00003353FF4FDAE1046194622E750EA4106B2
:1009F00018BF52EA43067FF4C5AE50EA41047FF4C3
:100A00000DAF52EA43057FF4EBAE12E74FF0FF3C27
:100A100006E000BF4FF0010C02E000BF4FF0010CF8
:100A20004DF804CD4FEA410C7FEA6C5C4FEA430C71
:100A300018BF7FEA6C5C1BD001B050EA410C0CBFC0
:100A400052EA430C91EA030F02BF90EA020F002022
:100A5000704710F1000F91EA030F58BF994208BF89
:100A600090422CBFD8176FEAE37040F00100704746
:100A70004FEA410C7FEA6C5C02D150EA013C07D19D
:100A80004FEA430C7FEA6C5CD6D152EA033CD3D0E8
:100A90005DF8040B704700BF8446104662468C46E2
:100AA0001946634600E000BF01B5FFF7B7FF002815
:100AB00048BF10F1000F01BD4DF808EDFFF7F4FF3E
:100AC0000CBF012000205DF808FB00BF4DF808EDC9
:100AD000FFF7EAFF34BF012000205DF808FB00BFEC
:100AE0004DF808EDFFF7E0FF94BF012000205DF80E
:100AF00008FB00BF4DF808EDFFF7CEFF94BF0120C3
:100B000000205DF808FB00BF4DF808EDFFF7C4FFBB
:100B100034BF012000205DF808FB00BF4FEA410C04
:100B20007FEA6C5C02D150EA013C0AD14FEA430CE7
:100B30007FEA6C5C02D152EA033C02D14FF0000024
:100B400070474FF0010070474A0011D212F50012B1
:100B500011D20DD56FF47873B3EB62520ED44FEA15
:100B6000C12343F0004343EA505323FA02F0704795
:100B70004FF00000704750EA013002D14FF0FF30D3
:100B800070474FF0000070474FEA4102B2F1E04376
:100B900024BFB3F5001CDCF1FE5C0DD901F0004C64
:100BA0004FEAC0024CEA5070B2F1004F40EB8300B4
:100BB00008BF20F00100704711F0804F21D113F1E0
:100BC0003872BCBF01F00040704741F480114FEA19
:100BD0005252C2F11802C2F1200C10FA0CF320FAA2
:100BE00002F018BF40F001004FEAC1234FEAD323BF
:100BF00003FA0CFC40EA0C0023FA02F34FEA430329
:100C0000CCE77FEA625307D150EA01331EBF4FF0B1
:100C1000FE4040F44000704701F0004040F0FE40CC
:100C200040F40000704700BF80F0004002E000BFC9
:100C300081F0004142001FBF5FEA410392EA030FC7
:100C40007FEA226C7FEA236C6AD04FEA1262D2EB11
:100C50001363C1BFD218414048404140B8BF5B4216
:100C6000192B88BF704710F0004F40F4000020F0AF
:100C70007F4018BF404211F0004F41F4000121F0C5
:100C80007F4118BF494292EA030F3FD0A2F101020F
:100C900041FA03FC10EB0C00C3F1200301FA03F14D
:100CA00000F0004302D5494260EB4000B0F5000F70
:100CB00013D3B0F1807F06D340084FEA310102F12F
:100CC0000102FE2A51D2B1F1004F40EBC25008BFE1
:100CD00020F0010040EA03007047490040EB0000AB
:100CE000013A28BFB0F5000FEDD2B0FA80FCACF1AC
:100CF000080CB2EB0C0200FA0CF0AABF00EBC250D9
:100D000052421843BCBFD0401843704792F0000FC6
:100D100081F4000106BF80F400000132013BB5E719
:100D20004FEA41037FEA226C18BF7FEA236C21D08F
:100D300092EA030F04D092F0000F08BF08467047F4
:100D400090EA010F1CBF0020704712F07F4F04D1C2
:100D5000400028BF40F00040704712F100723CBFD5
:100D600000F50000704700F0004343F0FE4040F4FF
:100D7000000070477FEA226216BF08467FEA2363BD
:100D80000146420206BF5FEA412390EA010F40F4A8
:100D9000800070474FF0000304E000BF10F00043F4
:100DA00048BF40425FEA000C08BF704743F09643DB
:100DB00001464FF000001CE050EA010208BF7047F6
:100DC0004FF000030AE000BF50EA010208BF70477D
:100DD00011F0004302D5404261EB41015FEA010C92
:100DE00002BF84460146002043F0B64308BFA3F18A
:100DF0008053A3F50003BCFA8CF2083AA3EBC2536C
:100E000010DB01FA02FC634400FA02FCC2F120028A
:100E1000BCF1004F20FA02F243EB020008BF20F0C1
:100E20000100704702F1200201FA02FCC2F1200227
:100E300050EA4C0021FA02F243EB020008BF20EA1C
:100E4000DC7070477BB972B90029BEBF00204FF03B
:100E5000004106E008BF00281CBF6FF000414FF0C2
:100E6000FF3000F057B8ADF1080C6DE904CE002951
:100E700009DB002B1ADB12F017FBDDF804E0DDE9DB
:100E8000022304B07047404261EB4101002B1BDBA1
:100E900012F00AFBDDF804E0DDE9022304B0404271
:100EA00061EB4101524263EB43037047524263EBF3
:100EB000430312F0F9FADDF804E0DDE9022304B09F
:100EC000404261EB41017047524263EB430312F031
:100ED000EBFADDF804E0DDE9022304B0524263EBF3
:100EE0004303704753B94AB9002908BF00281CBF03
:100EF0004FF0FF314FF0FF3000F00CB8ADF1080CAF
:100F00006DE904CE12F0D0FADDF804E0DDE9022349
:100F100004B07047704700BF10B5054C237833B953
:100F2000044B13B10448AFF300800123237010BDBC
:100F30006C03002000000000A837010808B5034B2F
:100F40001BB103490348AFF3008008BD0000000057
:100F500070030020A8370108014902480EF083BD44
:100F60007B6201088C03002001480EF034BD00BFF5
:100F70008C0300202DE9F04F2DED028B95B004F08D
:100F8000BBF804F0CFF8C1484FF4E13100F0D4FDD4
:100F9000BF49BE480EF0B6FBBE49BC480EF0B2FBDE
:100FA000BD49BA480EF0AEFBBC49B8480EF0AAFBEA
:100FB000BB49B6480EF0A6FB022117200EF04CFFED
:100FC000022116200EF048FF14200FF027F81720FA
:100FD0000EF0D8FFE8BBB349AC480EF093FB0121FB
:100FE00016200EF039FF092417200EF0CBFF014622
:100FF00070B916200EF08EFF0A200FF00FF80121B5
:1010000016200EF087FF0A200FF008F8013CEBD104
:10101000012117200EF020FF002117200EF07AFF8B
:101020000A200EF0FBFF012116200EF073FF0A20AC
:101030000EF0F4FF012117200EF06CFF0A200EF0D5
:10104000EDFF022117200EF007FF022116200EF0FF
:1010500003FF954B9549DA6DC1F884209B6DC1F86B
:1010600088309248002105F089FB91498F4805F0AE
:1010700083F832200EF0C4FF01F0E0FB03F026F805
:1010800008B103F0B7F80C200EF0B2FE02F052FDEA
:10109000884C002800F052810023237000250DF1B8
:1010A0000F008DF80F5003F0D9FD002800F04D819E
:1010B000657004F02DFF002800F04E810023A3701E
:1010C000DFF82082002504F08DFE657103F054FBEB
:1010D000E57004F037FD257100F08CFC404600F00F
:1010E000A7FC98F80830022B14BF2B460323A371EA
:1010F00004F03AFA06AF002800F035816E48E57139
:1011000004F074F908B1012323726C4B0FCB87E80C
:101110000F004FF07E53049304A9002338468DF846
:10112000143004F091F928B1384603F0BFFC04A84C
:1011300004F04EFE02F0A4F961496248DFF8ACA168
:10114000DFF888B103F08EFE5F4950480EF0DAFAFE
:101150004FF019092422002138460FF0EEFF3846DF
:10116000CDF834A002F0CEFDB8B13E460FCE574DBB
:101170000FC50FCE0FC5284633684F4940F82039B8
:1011800002F0A6FB9BED058A0EF038FF4C490246A3
:10119000B0EE480A4B4803F089FE14200EF030FFF1
:1011A000B9F10109D6D14A4D4A4E284603F092FCC6
:1011B000304604F06DFF3379002B00F0DB8096EDB4
:1011C000008A454804F024FEB0EE480A434803F084
:1011D000E9FAB0EE480A424804F0CAFC414800F07F
:1011E00027FC344802F03CFA3F4B83ED000A03F041
:1011F00059FC814604F0E8FD2F4A3A4900904B46DD
:101200002C4801F06BF900F0A5FC04F005F800286B
:1012100040F0B380062003F099FF2C4BB3F9042073
:10122000ADF81C205A6908929A6909922A7B1968BC
:10123000DB6906910A93002A00F0A980AB680B9342
:101240002B680C933379002B00F0A48033680D9346
:10125000224B5A7C002A00F0A2809B680E93204B00
:101260005A7D002A00F09D80DB680F931A4B5A7B51
:10127000002A00F098809B68109398F80930002BA2
:1012800040F093800023119332E000BF2C04002033
:101290000438010833380108053801085F380108AF
:1012A0006F3801087F38010834770108104D00209D
:1012B000A08601000C00002050000020C03701086B
:1012C000F403002010040020963901088400002057
:1012D000E403002044000020D4030020300000205C
:1012E00018000020C8030020C40300201A4601088B
:1012F000129303F091FF08B103F094FF8DF84C00B6
:1013000003F08AFF627823788DF84D001343B3FA17
:1013100083F35B0938468DF84E3002F0A1FF0EF0E2
:101320006DFE254B186004F0A1F9244924480EF005
:10133000E9F915B0BDEC028BBDE8F08F032321491C
:101340001F4823700EF0DEF9A8E603231E491C484F
:1013500063700EF0D7F9ACE604231C491848A3705B
:101360000EF0D0F9ACE6042319491548E3710EF0EC
:10137000C9F9DFE695ED018A23E72378032B02D034
:101380006378032B01D1012045E7032043E7114B8C
:101390000B9356E70AB16B6859E70E4B57E70D4BB5
:1013A0005CE70C4B61E70B4B66E7D8F80030119314
:1013B000D8F804309CE700BF98030020D239010818
:1013C0002C040020B2380108F7380108223901083E
:1013D0005D3901080000C07F2DE9F0472DED028B3B
:1013E000134D9EB003F0C8FE04F0E0FD0EF006FEC3
:1013F0002B780446D3B90F4801F000FA18B90E4B08
:1014000093F8103193B1012332202B700EF0F8FDC8
:1014100003F048FB054604F0D7FC084A0849009051
:101420002B46084801F05AF800F094FB064F32E0D2
:10143000880300202C04002060520020500000206F
:10144000C80300200C0000208C030020AC4801F0F1
:10145000E5F9C1B20A29BB6802D00D2940F0E0814C
:10146000CBB1A849A648A84E0EF034F93946A44895
:101470000EF052F90FCE0CAD0FC50FCE0FC50FCE2B
:101480000FC533682B600CA9384601F07BFA9F49E1
:1014900038460EF02CFB9A4801F0B0F901460028BE
:1014A000D4D19B4A1368E31A132B30D9146003A8D4
:1014B00024220FF042FE974B0A9303A802F022FC6D
:1014C000954FDFF86882002800F0B18103AD0FCDA1
:1014D0003E460FC60FCD0FC62B6890493360384685
:1014E00002F0F6F997F8203088F8003097F82130AC
:1014F000002B40F0A28103F039FE022807D0884B70
:101500001B78022B40F00382052003F01FFE854A62
:101510001368E31AC72B09D98348146003F0DAFA79
:10152000824B002800F0088200225A70804A13681B
:10153000E31AC72B2DD97F4E1460304604F0A8FD66
:1015400004F0B2FD794D337980F001008000A8707D
:10155000002B00F0F38196ED008A774804F058FCE8
:1015600004F0CAFC80F00100B0EE480A68717348CC
:1015700003F018F903F088FA80F00100E870B0EE8B
:10158000480A6F4804F0F4FA04F012FC80F00100FD
:1015900028716C4A1368E31AB3F5FA7F0ED36A4DCB
:1015A0001460284600F044FA604B002800F0CC811B
:1015B0002A7A022A40F0C68103229A71634A13688C
:1015C000E31AB3F5FA6F5AD3614EDFF8ACA1356870
:1015D000DFF8A8919FED5F8A1460002D00F0B881BC
:1015E00007EE905A9AED007AF8EE677A012DC7EE71
:1015F000278A40F0B181B0EE480A11F053FDDFF8C0
:101600008081554F002D40F0B581434B5A691146FA
:10161000524B0C941B680D93434B187B002800F031
:10162000AD8198681192434A109111790E90CDEDD9
:101630000F8A8DED120A002900F0A281136813931E
:101640003E4B9B6814933E4BDB6815933A4B9B686B
:1016500016933D4B0CA81B68179304F047F8334BC7
:101660008AED008A80F001008000D8713C4BC8F8F8
:1016700000303C4B3B60002389ED008A33603A4ADE
:101680001368E31AB3F5FA7F2AD3344F274D3B682A
:10169000146001333B60214B1B4E93F830302B72AA
:1016A00003F0BAFD80F001008000E871284601F0E7
:1016B000D7FF2E4B83ED000A0FCE0CAD0FC50FCE1A
:1016C0000FC50FCE0FC5336839682B600CA800F02A
:1016D000EFFA0CA8396800F02DFD25480DF0BBFE8F
:1016E000244A1368E31AB3F57A7FC0F094800A4B5A
:1016F0001460B3F90420ADF834205A690E9241E029
:101700002C040020365F0108D03701087B620108F5
:10171000B00300201A460108840000205000002079
:10172000F4030020AC030020E40300200C000020A0
:10173000A803002044000020D40300203000002033
:1017400018000020A4030020C8030020A0030020EC
:10175000B40300200000000000000020C0030020AF
:10176000F0237449F02374C99C030020C4030020B3
:101770006052002098030020BC030020B803002022
:10178000040000209A690F92884A19680C91117B15
:10179000DB691093002940F0F580854B119312937B
:1017A000844B1879002800F0F1801B681393824B5A
:1017B0005A7C002A00F0EF809B6814937F4B5A7D7F
:1017C000002A00F0EA80DB6815937D4B5A7B002AE3
:1017D00000F0E5809B6816937A4B5A7A002A40F015
:1017E000E08000231793189303F016FD08B103F06F
:1017F00019FD8DF8640003F00FFD734A8DF8650044
:10180000137852781343B3FA83F35B090CA88DF86D
:10181000663002F025FD1EB0BDEC028BBDE8F087FE
:101820003F2B3FF638AE38460EF08EF933E60323F1
:1018300087F8210088F800305DE6644997ED050AD5
:101840006348224603F032FB624BD7ED057A93EDF5
:10185000007A614A0C9437EE277ACDED107A83ED49
:10186000007A5E4B93ED007AA7EEA77A83ED007ABB
:101870005B4B93ED007AF4EEC77AF1EE10FA48BFB5
:10188000C3ED007A574B93ED007AF4EEC77AF1EE90
:1018900010FAC8BFC3ED007A136801331360524BCE
:1018A0003A681B680D93B7F90430ADF83C30484BEB
:1018B0000E921A6811925A681292DA6813921B6992
:1018C0003C4A1493414B11799B681593374BE1B116
:1018D000126819689B681893374B16919B68199387
:1018E000364B1792DB681A93354B9B681B93354B2D
:1018F0001B681C933D4B0CA81B681D9301F0DAFD7F
:1019000032480CA901F0F4FDF5E55A68E1E7012B36
:1019100001D10420F9E503F07FFC08B90620F4E5C5
:1019200098F80030032B03D098F80130032B01D135
:101930000120EAE50320E8E50322F6E51B4B93EDE1
:10194000018A0AE6012A01D1012236E6002234E6A4
:10195000274BD3ED058A4EE699ED007A87EE270AEC
:10196000A8EEE80AB5EEC00AF1EE10FAD8BFB0EE64
:10197000480A42E6D8F800103A6849E6002051E6E5
:101980005B685CE693681193136808E709B15368D4
:101990000CE7074B0AE7064B0FE7054B14E7044B30
:1019A00019E71A6817925B681DE700BFE40300207F
:1019B0000000C07F440000203000002018000020FC
:1019C000D4030020C80300200C000020F4030020F2
:1019D00010040020BC030020B4030020B803002042
:1019E0000400002000000020C0030020C4030020E9
:1019F0008400002008B50521C9200EF02DFA084901
:101A000008480DF07FFE084906480DF063FEBDE86A
:101A100008409FED060A034803210DF0D2BF00BF26
:101A2000163A0108605200204D3A01089A998940FF
:101A300070B5064610250024C9200EF0F7F90444BD
:101A400064200EF0EBFA013DF6D107EE904A9FEDCF
:101A50002A7AFBEECE7A67EE877A9FED287A67EED8
:101A6000877A9FED277A67EE877AB6EE007AF4EEF2
:101A7000C77AF1EE10FAC6ED007A3AD4B3EE047AE2
:101A8000F4EEC77AF1EE10FA33DCB2EE027A37EEFA
:101A9000C77A9FED1C6AC7EE066A9FED1B7A66EE59
:101AA000876AF4EEC76AF1EE10FAD8BFB0EE667A34
:101AB000B5EEC07ADFED156AF1EE10FA48BFB0EE70
:101AC000667AF2EE036AF4EEE67AF1EE10FA0ED9D7
:101AD000F2EE056AF4EEE67AF1EE10FA94BF012315
:101AE000002386ED017A33720120707270BD0223EB
:101AF000F7E72846F9E700BF000080393333534049
:101B00009A998940686666400000C842000000005B
:101B100002289ABF024B53F820000248704700BFCA
:101B200038640108783A010800207047036840F2E1
:101B300013421B6A1847000010B504480C46FFF713
:101B4000F5FF03482146FFF7F1FF10BD605200206A
:101B50003404002008B5394939480DF0D3FD39491E
:101B600037480DF0CFFD384935480DF0CBFD3749EA
:101B700033480DF0C7FD364931480DF0C3FD3549F6
:101B80002F480DF0BFFD34492D480DF0BBFD334902
:101B90002B480DF0B7FD324929480DF0B3FD31490E
:101BA00027480DF0AFFD304925480DF0ABFD2F491A
:101BB00023480DF0A7FD2E4921480DF0A3FD2D4926
:101BC0001F480DF09FFD2C491D480DF09BFD2B4932
:101BD0001B480DF097FD2A4919480DF093FD29493E
:101BE00017480DF08FFD284915480DF08BFD27494A
:101BF00013480DF087FD264911480DF083FD254956
:101C00000F480DF07FFD24490D480DF07BFD234961
:101C10000B480DF077FD224909480DF073FD21496D
:101C200007480DF06FFD204905480DF06BFDBDE83C
:101C300008401E4902480DF065BD00BF0438010888
:101C40002C0400208D3A010805380108B43A010837
:101C5000E53A01081B3B01085C3B0108923B010887
:101C6000C93B0108023C0108353C0108623C0108FF
:101C7000973C0108CD3C0108FF3C0108383D0108B4
:101C80006F3D0108A13D0108D93D01080E3E010844
:101C9000453E01087D3E0108B53E0108EE3E0108C3
:101CA0001A3F0108453F0108793F0108AB3F010891
:101CB00038B504460D46AD48AD490DF023FDAD499C
:101CC000AA480DF01FFDAA49A8480DF01BFDAA491E
:101CD000A6480DF017FD236893F82130002B00F083
:101CE000FA81A649A1480DF0F5FC23689F4893EDC1
:101CF000060A01210DF056FEA1499C480DF0EAFCB0
:101D000023689A48D9690DF0EEFC9E4997480DF07A
:101D1000F9FC9D4995480DF0DDFC2368934893ED4F
:101D2000020A02210DF03EFE984990480DF0EAFCAF
:101D300097498E480DF0CEFC23688C4893ED030A3A
:101D400002210DF02FFE914988480DF0DBFC9149EE
:101D500086480DF0BFFC2368844893ED040A0221F5
:101D60000DF020FE894981480DF0CCFC8A497F485E
:101D70000DF0B0FC23687D4893ED050A02210DF0BB
:101D800011FE824979480DF0BDFC844977480DF079
:101D9000B9FC834975480DF09DFCA368734893ED29
:101DA000000A02210DF0FEFD784970480DF0AAFCF2
:101DB0007C496E480DF0A6FC79496C480DF08AFC10
:101DC000A368D3ED017AF5EEC07AF1EE10FA03DBE9
:101DD00066482B210DF08BFCA368644893ED010A43
:101DE00002210DF0DFFD694960480DF08BFC6E4962
:101DF0005E480DF087FC6A495C480DF06BFCA368F7
:101E00005A4893ED030A02210DF0CCFD674957486B
:101E10000DF078FC664955480DF074FC6049534854
:101E20000DF058FCE368187803F05AF901464F4862
:101E30000DF07CFC5F494D480DF064FC23691B7B71
:101E4000002B00F04A81564948480DF043FC2369B5
:101E5000464893ED000A02210DF0A4FD564943487F
:101E60000DF050FC554941480DF04CFC4C493F48A1
:101E70000DF030FC23693D4893ED020A02210DF07C
:101E800091FD4F4939480DF03DFC4E4937480DF062
:101E900039FC63691B79002B00F021814A493348E2
:101EA0000DF018FC6369314893ED000A02210DF032
:101EB00079FD46492D480DF025FC23691B7B73B144
:101EC00043492A480DF006FC2369284893ED010A8E
:101ED00001210DF067FD3D4924480DF013FC3D49FB
:101EE00022480DF00FFC3C4920480DF0F3FBA3699C
:101EF0001E4893ED010A03210DF054FD37491B489C
:101F00000DF0E8FBA3691B7B1BB9354917480DF0A1
:101F1000E1FB16480DF0EEFB324914480DF0DAFBF8
:101F2000E369124893ED020A02210DF03BFDE369DB
:101F30001B7C1BB92A490D480DF0CCFB0B480DF05A
:101F4000D9FB294909480DF0C5FB236A074893EDE1
:101F5000030A01210DF026FD244904480DF0BAFBC7
:101F6000236A1B7D002B46D11D4941E02C04002033
:101F70003F440108DA3F0108EF3F0108074001082C
:101F800013400108674501081A400108264001086E
:101F90002A400108364001080C4B01085A4001084C
:101FA000A0490108644001086F4001087F40010812
:101FB00085400108954001089F400108A4400108A0
:101FC000BC400108DC400108E9400108FB40010871
:101FD0003041010843410108524101085E410108B6
:101FE00007490108614101086D4101087941010873
:101FF0003F480DF06FFB3E480DF07CFB3D493C48EF
:102000000DF080FB636A5B7A002B6AD03A4938484E
:102010000DF060FB636A364893ED000A02210DF073
:10202000C1FC364932480DF06DFB334930480DF0A4
:1020300051FB636A2E4893ED010A00210DF0B2FCBA
:102040002F492B480DF05EFB2B4929480DF042FB30
:10205000636A187AFFF75CFD014625480DF066FBC0
:10206000284923480DF04EFB234921480DF032FB4F
:10207000236BDFED257A93ED000A1D4820EE270A39
:1020800001210DF08FFC1E4919480DF03BFB1F4943
:1020900017480DF037FB03F0C5F838B31C49144856
:1020A0000DF018FB03F0C8F8014611480DF01BFBBA
:1020B00018490F480DF026FB17490D480DF00AFB93
:1020C00029460B480A220DF0A9FBBDE83840134908
:1020D00007480DF017BB124954E61249D2E61249DF
:1020E000E8E6124902480DF00DFBB9E71049E0E7B8
:1020F0002C0400207E410108A04901085E4101082E
:1021000087410108A04101080000C842AE41010812
:10211000B741010867450108E9410108CE480108B7
:1021200042400108BF400108FE4001088A41010801
:10213000D641010838B504460D46B848B8490DF0F7
:10214000C9FAB849B5480DF0C5FAB749B3480DF01A
:10215000C1FA0A222946B1480DF047FBB349AF48FE
:102160000DF0B8FA0DF04AFF0A220146AB480DF017
:102170003CFBAF49A9480DF0ADFA236893F8212044
:10218000002A00F0378193ED020AA44804210DF0E3
:1021900009FCA849A1480DF09DFA236893F8212075
:1021A000002A00F02A8193ED030A9C4804210DF0D7
:1021B000F9FBA14999480DF08DFA236893F8212085
:1021C000002A00F01D8193ED040A944804210DF0CB
:1021D000E9FB9A4991480DF07DFA236893F8212094
:1021E000002A00F0108193ED050A8C4804210DF0BF
:1021F000D9FB934989480DF06DFA236893F82120A3
:10220000002A00F0038193ED060A844801210DF0B5
:10221000C9FB8C4981480DF05DFA236893F82120B1
:10222000002A00F0F680D9697C480DF05CFA8649F6
:102230007A480DF04FFA854978480DF04BFAA368BB
:10224000764893ED000A04210DF0ACFB80497348F9
:102250000DF040FAA368714893ED010A04210DF0D6
:10226000A1FB7C496D480DF035FAA3686B4893EDEE
:10227000030A04210DF096FB774968480DF02AFA0D
:10228000E368187802F02CFF014664480DF02BFA41
:10229000724962480DF01EFAE368604893ED020A45
:1022A00004210DF07FFB6E495C480DF013FA2369A1
:1022B0001A7B002A00F0AF8093ED000A57480221F4
:1022C0000DF070FB674955480DF004FA63691A79FF
:1022D000002A00F0E18093ED000A504802210DF041
:1022E00061FB61494D480DF0F5F923691A7B002A1D
:1022F00000F0DB8093ED010A484802210DF052FB0B
:102300005A4946480DF0E6F923691A7B002A00F085
:10231000CF8093ED020A414803210DF043FB54495D
:102320003E480DF0D7F9A3695A7B002A00F0C3801C
:1023300093ED010A394804210DF034FB4D4937482B
:102340000DF0C8F9A3695A7B002A00F0B78093ED1D
:10235000020A324801210DF025FB47492F480DF0B4
:10236000B9F9E3695A7C002A00F0AB8093ED020AC8
:102370002A4802210DF016FB404928480DF0AAF921
:10238000236A5A7D002A00F09F8093ED030A2348B8
:1023900001210DF007FB3A4920480DF09BF9636AD3
:1023A0005A7A002A00F0938093ED000A1B4803211B
:1023B0000DF0F8FA334919480DF08CF9636A5A7A2E
:1023C000002A00F0878093ED010A144801210DF0E6
:1023D000E9FA2D4911480DF07DF9236B0F4893ED73
:1023E000000A03210DF0DEFABDE8384027490B480A
:1023F0000DF088B99FED270AC7E69FED260AD4E6BF
:102400009FED240AE1E69FED230AEEE69FED210A07
:10241000FBE61F4908E79FED1F0A4FE72C04002049
:10242000F1410108004201080F4201081D42010864
:102430002E42010838420108424201084C4201087C
:102440005A4201086A420108FE4101087842010827
:1024500085420108934201089B420108AE420108EF
:10246000C1420108D2420108E4420108F6420108D3
:102470000243010812430108244301082B430108C9
:1024800037430108454301085543010866430108E5
:102490001A4601080000000023691A7B12B193ED6F
:1024A000010A1AE7B3EE090A17E71FED060A23E748
:1024B0001FED080A2FE71FED090A3BE71FED0B0A86
:1024C00047E7B1EE0C0A53E71FED0E0A5FE71FED79
:1024D0000F0A6BE71FED110A77E700BF2DE9F843FC
:1024E00004460D4676487749DDF820901E4617468B
:1024F0000DF008F9744972480DF004F973497048F9
:102500000DF000F972496E480DF0E4F871496C481D
:102510000DF0F8F870496A480DF0DCF86F4968482A
:102520000DF0F0F86E4966480DF0ECF86D4964481E
:102530000DF0E8F86C4962480DF0CCF82378002BD8
:1025400040F0BA8001F016F901465D480DF0CBF875
:1025500066495B48DFF80C820DF0D4F864495848AE
:102560000DF0B8F86178634B5548002908BF434621
:1025700019460DF0C7F8604951480DF0ABF85F4BB4
:10258000A1785F4A4E48002908BF1A4611460DF04F
:10259000B9F85C494A480DF09DF85B4948480DF090
:1025A000B1F85A4946480DF095F8594944480DF09C
:1025B000A9F8584942480DF08DF8574940480DF0A8
:1025C000A1F856493E480DF085F8E179544B3C4856
:1025D000002908BF434619460DF094F85149384880
:1025E0000DF078F801F0A4FD4F4B5049002808BFCA
:1025F000194633480DF086F84D4931480DF06AF818
:102600006B7A002B5AD095ED000A2D4802210DF06F
:10261000C9F948492A480DF05DF8002195ED010AF5
:1026200027480DF0BFF944492548444C0DF06AF89D
:102630002B4923480DF066F8414921480DF062F816
:1026400029491F480DF046F897F830103D4B3E4A97
:102650001B48002918BF1A4611460DF053F83B4994
:1026600017480DF037F8317B394B1548002918BF52
:10267000234619460DF046F8364911480DF02AF860
:1026800099F80410324B0E48002918BF234619460A
:102690000DF038F812490A480DF034F82E49084870
:1026A0000DF030F82D4906480DF02CF8BDE8F84340
:1026B0002B4903480DF026B80E494AE70D49B3E708
:1026C0002C04002004380108CC4301080538010817
:1026D000F8430108004201080D44010822440108A2
:1026E0003244010860440108734401088844010829
:1026F0009244010884430108A74401086F4301087C
:10270000D3500108BC440108D1440108DE4401084B
:10271000F344010800450108154501082245010858
:102720007C43010837450108984301088A430108A2
:102730004C4501086145010866450108C14301088F
:102740006945010811510108A743010878450108AE
:10275000BF4301088D450108A2450108BC45010899
:10276000AB3F01086843010807B524230093092201
:102770000A2105480CF0BAFD044B00225A60044AB5
:102780001A6003B05DF804FB340400202C04002020
:102790004C640108064890F8103110B50C460BB196
:1027A0000CF0C0FC214603480CF0BCFC012010BD1D
:1027B0006052002034040020074838B590F81031EA
:1027C0000D4614460BB10CF005FD22462946034880
:1027D0000CF000FD204638BD60520020340400207B
:1027E00008B504480CF037FEBDE8084002480CF07C
:1027F00032BE00BF605200203404002008B50548F6
:102800000CF06DFC20B10348BDE808400CF067BC3B
:102810000148F9E7340400206052002008B505485B
:102820000CF05DFC20B10348BDE808400CF00ABF85
:102830000148F9E7340400206052002038B53B49D4
:102840003B480CF05FFF3B4939480CF05BFF3A49CD
:1028500037480CF057FF012400253848214603F083
:1028600051FC364803F056FCC8B9354930480CF0E5
:1028700031FF0F2C03D833492D480CF02BFF2C4887
:10288000102221460CF0BEFF2C2C30D12E492848B6
:102890000CF020FF26480CF02DFF0135EDB201347D
:1028A000E4B27F2CD9D1002D35D1284920480CF035
:1028B00029FF27491E480CF025FF26491C480CF02B
:1028C00021FF25491A480CF01DFF244918480CF037
:1028D00019FF234916480CF015FF224914480CF043
:1028E00011FFBDE83840204911480CF00BBF1E2CE9
:1028F00001D11E49CBE70D2C01D11D49C7E73C2C66
:1029000001D11C49C3E7762C01D11B49BFE7772CC5
:10291000C0D11A49BBE71A4905480CF0DBFE0A2270
:10292000294603480CF070FFDBE700BFED450108C6
:102930002C04002008460108EE450108104D002037
:102940001C460108656201082F4601081A47010864
:10295000585901083047010882470108AA47010871
:10296000F74701084B480108BE4801085B460108CB
:102970007F460108AB460108D3460108F646010828
:102980009D48010870B58AB006460C46014601A86C
:102990000DF09DF801A80DF02FF9884904A80DF05D
:1029A00062F8202101A80DF0FAF8051E1CDD039B3A
:1029B0006A1C01A907A80DF0F5F807A904A80DF0F5
:1029C00090F807A80DF007F804A80DF015F92B46AC
:1029D000002201A907A80DF0E5F807A901A80DF04C
:1029E00080F807A80CF0F7FF01A80DF0F9F874497A
:1029F00001A80DF0B4F848B1FFF7ACF804A80CF04A
:102A0000EAFF01A80CF0E7FF0AB070BD6D4901A80C
:102A10000DF0A5F8002800F00F816B496B486C4D54
:102A20000CF070FE6B4969480CF054FE6A49674827
:102A30000CF068FE694965480CF04CFE6849634833
:102A40000CF060FE674961480CF044FE00F092FE15
:102A500001465E480CF047FE63495C480CF03AFEC4
:102A6000A36A187800F0F0FD014658480CF05EFEAD
:102A70005E4956480CF02EFEA36A587800F0E4FD3B
:102A8000014652480CF052FE594950480CF022FEC3
:102A9000A36A987800F0D8FD01464C480CF046FE39
:102AA00054494A480CF016FEA36AD87800F0CCFDD1
:102AB000014646480CF03AFE4F4944480CF00AFEE5
:102AC000A36A187900F0C0FD014640480CF02EFEC4
:102AD0004A493E480CF0FEFDA36A587900F0B4FD67
:102AE00001463A480CF022FE454938480CF0F2FD08
:102AF000A36A987900F0A8FD014634480CF016FE50
:102B0000404932480CF0E6FDA36AD87900F09CFDFC
:102B100001462E480CF00AFE3B492C480CF0DAFD29
:102B200063683A4A93F83010394B2848002918BF97
:102B30001A4611460CF0E6FD364924480CF0CAFD51
:102B4000E3692248197C314B002918BF2B461946EE
:102B50000CF0D8FD30491D480CF0BCFD236A1B4821
:102B6000197D2A4B002918BF2B4619460CF0CAFDC7
:102B70002A4916480CF0AEFD02F054FB284B2949B7
:102B8000002808BF194611480CF0BCFD26490F4823
:102B90000CF0A0FD236BDFED257A93ED000A0B48C6
:102BA00020EE270A01210CF0FDFE214907480CF018
:102BB000A9FD204905480CF0A5FD1FE77B6201082F
:102BC0003D4901088E400108424901082C040020BB
:102BD000C1430108F9430108004201086C4901089A
:102BE00022440108804901089449010898490108D4
:102BF000AC490108C0490108D4490108E849010865
:102C0000FC490108104A0108244A0108BF43010891
:102C100011510108384A01084C4A0108604A01086C
:102C2000E1410108F0480108744A01080000C84267
:102C300087410108C64801089A4901A80CF08FFF96
:102C4000002800F09D80984998480CF05BFD2368AF
:102C500093F82130002B00F09180954993480CF0B7
:102C600039FD00F087FD014690480CF05FFD914969
:102C70008E480CF02FFD23688C4893ED060A012145
:102C80000CF090FE8C4989480CF024FD236887489D
:102C9000D9690CF028FD894984480CF033FD884936
:102CA00082480CF017FD2368804893ED020A032147
:102CB0000CF078FE83497D480CF024FD82497B4866
:102CC0000CF008FD2368794893ED030A03210CF00A
:102CD00069FE7C4975480CF015FD7C4973480CF081
:102CE000F9FC2368714893ED040A03210CF05AFEA5
:102CF00074496E480CF006FD75496C480CF0EAFC0E
:102D000023686A4893ED050A03210CF04BFE6D49D8
:102D100066480CF0F7FC6F4964480CF0DBFC236854
:102D20006248B3F900100A220CF053FD6A495F486B
:102D30000CF0D0FC23685D48B3F902100A220CF0B5
:102D400048FD654959480CF0C5FC23685748B3F95C
:102D500004100A220CF03DFD604954480CF0D2FCEE
:102D60005F4952480CF0B6FC23685E4A93F8201085
:102D70005D4B002918BF1A4611461BE75B4919E74E
:102D80005B4901A80CF0EBFE00283CD059494748AC
:102D90000CF0B8FC236893F82130002B31D0564951
:102DA00042480CF097FC2368404893ED060A012145
:102DB0000CF0F8FD51493D480CF0A4FC50493B484B
:102DC0000CF088FC23683948D9690CF0AFFC4D49F8
:102DD00036480CF07FFC00F0CDFC014633480CF087
:102DE000A5FC494931480CF075FC01219FED470ACB
:102DF0002E480CF0D7FD41492C480CF083FC444987
:102E0000D8E64449F8E7444901A80CF0A8FE10B1FF
:102E1000FFF714FDF2E5414901A80CF0A0FE0028DF
:102E2000F6D13F4901A80CF09AFE002800F08C80F2
:102E30003C491E480CF066FC23691B7B002B2ED0FE
:102E400039491A480CF046FC2369184893ED000AEA
:102E500002210CF0A7FD354914480CF053FC34490D
:102E600012480CF037FC2369104893ED010A022147
:102E70000CF098FD2F490D480CF044FC2E490B48EE
:102E80000CF028FC2369094893ED020A03210CF099
:102E900089FD2A4905480CF035FC29498AE629496B
:102EA00088E600BF884A01088C4A01082C040020EB
:102EB000AC4A0108BE4A01081340010867450108F1
:102EC000D04A010826400108E24A0108F44A0108F4
:102ED000064B0108184B01082B4B010890440108D0
:102EE0002E4B0108FB480108F7480108404B010838
:102EF000FF3F0108704B0108914B0108A34B0108EB
:102F0000A84B0108BA4B0108CC4B01080000000097
:102F1000CF480108DE4B010817460108FD4B0108A8
:102F200096400108014C0108224C01089F4001080D
:102F3000314C0108FB400108404C0108BC4001082D
:102F40004F4C0108894C0108A04901A80CF007FE6C
:102F500000282DD09E499F480CF0D4FB63691B7953
:102F600013B39D499B480CF0B5FB6369994893EDF9
:102F7000000A02210CF016FD984996480CF0C2FB9D
:102F800023691B7B93B1964992480CF0A3FB2369FC
:102F9000904893ED010A02210CF004FD8F498D4801
:102FA0000CF0B0FB8F4905E68F49E6E78F49F6E75D
:102FB0008F4901A80CF0D3FD002831D08D498548F8
:102FC0000CF0A0FBA3695B7B43B38B4981480CF0F9
:102FD00081FBA3697F4819880A220CF0FCFB874912
:102FE0007C480CF077FBA3697A4893ED010A032132
:102FF0000CF0D8FC824977480CF084FB8149754875
:103000000CF068FBA369734893ED020A01210CF0F0
:10301000C9FCA3697C4A197B7C4BAAE67C49C9E5BB
:103020007C4901A80CF09BFD002845D07A496948ED
:103030000CF068FBE3695B7C002B3BD0774965486B
:103040000CF048FBE369634893ED020A02210CF09F
:10305000A9FCE369724A197C724B5E48002918BFCB
:103060001A4611460CF04EFB64495A480CF032FBEC
:10307000E369584893ED010A03210CF093FC604981
:1030800054480CF03FFB5C4952480CF023FBE369C9
:10309000504819880A220CF09EFB63494D480CF0F9
:1030A00019FBE3694B4893ED030A01210CF07AFC0C
:1030B0004A497FE55D497DE55D4901A80CF04FFD7A
:1030C000002848D05B4943480CF01CFB236A5B7D19
:1030D000002B3ED058493F480CF0FCFA236A3D488B
:1030E00093ED030A01210CF05DFC236A534A197D1C
:1030F000534B3848002918BF1A4611460CF002FB02
:10310000504934480CF0E6FA236A324893ED020A3B
:1031100003210CF047FC3A492E480CF0F3FA3749EA
:103120002C480CF0D7FA236A2A4893ED010A0321B0
:103130000CF038FC324927480CF0E4FA2E492548B7
:103140000CF0C8FA236A234819880A220CF043FBC2
:1031500054E43D492EE53D4901A80CF000FD00284E
:1031600000F082803A491B480CF0CCFA636A5B7A23
:1031700053B3384917480CF0ADFA636A154893ED1C
:10318000000A02210CF00EFC1D4912480CF0BAFA9C
:10319000314910480CF09EFA636A0E4893ED010A1B
:1031A00001210CF0FFFB2D490A480CF0ABFA2C4929
:1031B00008480CF08FFA636A187AFEF7A9FC0146FA
:1031C00004480CF0B3FA19E42649F3E4B14C0108C1
:1031D000B64C01082C040020D44C0108FB40010827
:1031E000184D0108D2480108EB4C0108304D010888
:1031F0004F4D0108594D0108734D0108844D0108D8
:103200005E410108954D010803490108FE48010887
:10321000A64D01080E4F0108C54D0108D84D010803
:10322000074901081B490108E94D0108FA4D010849
:10323000154F0108124E0108264E010829490108C0
:1032400017490108374E0108484E01087F4101081F
:10325000614E01087A4E01088B4E01088741010832
:103260009C4E0108AD4E01086B4901A80CF077FC9B
:1032700020B1606800F02AFEFFF7C0BB674901A8D3
:103280000CF06DFC20B1606800F082FBFFF7B6BB6C
:10329000634901A80CF063FC20B1606800F092FB68
:1032A000FFF7ACBB5F4901A80CF059FC28B101F055
:1032B000FBFA00283FF4A2AB0EE05B4901A80CF03A
:1032C0004EFC10B101F056FBF3E7584901A80CF091
:1032D00046FC88B101F0C0FB01F09EFF00283FF4DE
:1032E0008DAB01F0DFFB044602F06EFD0146204687
:1032F00002F0F2FBFFF782BB4D4901A80CF02FFC56
:1033000060B1069B43B104A80CF0AAFC2369D3ED7D
:10331000010A02F0A1FCCCE746494BE4464901A86A
:103320000CF01DFC10B102F033FDD5E7434901A8B4
:103330000CF015FC20B1E06A01F034FCFFF75EBB35
:103340003F4901A80CF00BFC18B102F08FF9FFF710
:1033500055BB3C4901A80CF002FC18B102F0AAF9D7
:10336000FFF74CBB384901A80CF0F9FB28B1D4E9B0
:10337000020101F089FDFFF741BB344901A80CF0BF
:10338000EEFB00283DD032493248334C0CF0BAF9FC
:10339000324930480CF09EF901F03EFF30490028D8
:1033A00018BF21462B480CF0ADF92E4929480CF0E6
:1033B00091F901F037FF2A49002818BF2146254816
:1033C0000CF0A0F9284923480CF084F901F034FFEF
:1033D000014620480CF0AAF924491E480CF07AF95D
:1033E00001F0FEFF40B101F02BFF014619480CF03F
:1033F0009DF91F49FFF7DEBB1E4916480CF082F904
:10340000F7E71D4913480CF065F9314611480CF0F7
:1034100065F91A49FFF7CEBBCA4E0108D44E010820
:10342000E64E0108F64E0108FF4E0108084F01085C
:10343000114F0108194F0108544F01085E4F010850
:103440006A4F0108744F01087D4F01088C4F010835
:10345000964F01082C040020F7480108B64F0108D8
:10346000FB480108CF4F0108E84F0108015001084F
:10347000D04801081A500108265001083F500108A1
:10348000064A0749074800231380074A1380074A62
:103490001370074A13600CF035B900BF54050020C3
:1034A000645001082C040020520500205005002023
:1034B0004C05002038B50B4D01462C880A4848229F
:1034C00002FB04000DF0F7FE0134FA23B4FBF3F223
:1034D00003FB1244054A2C801388F92B9CBF01334F
:1034E000138038BD540500205805002052050020E7
:1034F0002DE9F04703784F4E022B377892B00C46F7
:1035000040F08F80002F2DD001F086FE002834D0AF
:10351000B4F90C30ADF80C3023690493636905935A
:10352000A3690693E3690793236A0893636A09937F
:10353000A36A0A93E36A0B93236B626821680C9376
:10354000636B0D93A36B0E93CDE90012E36BA2683E
:1035500002920F93236C10936846636C119301F0F1
:1035600073FE0AE00123344D337083692B6001F050
:1035700053FE28B93378002BC6D112B0BDE8F087CE
:10358000286802F0DDF90028F4D02C4BDFF8B08079
:103590001B88B8F80020DFF8ACA09B1AFA334FF074
:1035A000FA0993FBF9F209FB12339DB2B8F8002037
:1035B000BBB29A42DED915FA87F1B1FBF9F309FBE8
:1035C0001311482359430AEB01035AF801105A68B2
:1035D000B3F90C00CDE900129A6802921A690492BC
:1035E0005A6905929A690692DA6907921A6A0892EC
:1035F0005A6A09929A6A0A92DA6A0B921A6B0C92C8
:103600005A6B0D929A6B0E92DA6BADF80C000F921A
:1036100068461A6C5B6C10921193013701F014FE2E
:10362000C4E7002FA9D00023337012B0BDE8F047E3
:1036300002F004BA500500204C050020540500207B
:10364000520500205805002004289ABF024B53F869
:1036500020000248704700BF68640108783A0108FA
:103660000278022A97BF3B4BDFED3B7A03EB8203E4
:10367000D3ED007A4378012B38D0022B39D01BB917
:103680009FED367A77EE877A8378002B34D0012B42
:1036900037D0C378002B37D0012B3AD00379002BD9
:1036A0003AD0012B3DD04379002B3DD0012B40D0A7
:1036B0008379012B40D0022B41D01BB99FED277A93
:1036C00077EE877AC379EBB3012B40D0037A1BB135
:1036D0009FED237A77EE877AB7EE000AF4EEC07A90
:1036E000F1EE10FAD8BFB0EE670A70479FED1D7A71
:1036F000C8E79FED1D7AC5E79FED187A77EE877AC8
:10370000C7E79FED187AF9E79FED147A77EE877A8D
:10371000C4E79FED137AF9E79FED107A77EE877A89
:10372000C1E79FED0F7AF9E79FED0C7A77EE877A84
:10373000BEE79FED0B7AF9E79FED0C7AC0E79FEDAE
:103740000A7ABDE79FED067A77EE877ABEE79FEDAE
:10375000087AF9E75C64010800000000CDCCCC3D9C
:10376000CDCC4C3D8FC2753D8FC2F53C295C8F3D61
:103770000AD7A33C054B1B78013BDBB2022B9ABF57
:10378000034A52F823000348704700BFA84B0020AB
:103790007C640108CC50010808B5F0EE607A2DED8C
:1037A000028BF0EE400AB0EE670AB0EE418A0FF0ED
:1037B00077FCDFED0E7AA8EE270ADFED0D7AB5EE85
:1037C000C00AF1EE10FA08D530EE270ABDEC028BE4
:1037D000DFED087A20EE270A08BDB4EEE70AF1EE25
:1037E00010FAA8BF30EE670AF0E700BF35FA8E3C4A
:1037F000DB0FC940E12E6542DFED257AB4EEE70A22
:10380000F1EE10FA35DADFED237AB4EEE70AF1EEE5
:1038100010FA2ED42FDBDFED207AB4EEE70AF1EEBA
:1038200010FA2AD4DFED1D7AB4EEE70AF1EE10FAB1
:1038300025D4DFED1B7AB4EEE70AF1EE10FA20D4BE
:10384000DFED187AB4EEE70AF1EE10FA1BD4DFEDE3
:10385000167AB4EEE70AF1EE10FA16D4DFED137A19
:10386000134B1448B4EEE70AF1EE10FA58BF1846AD
:103870007047114870470E4870471048704710480D
:10388000704710487047104870471048704700BF95
:1038900000C0A8430000B441000087420000E1429C
:1038A00000801D4300804A430080774300409243DC
:1038B000E1500108E25001081A4601086140010880
:1038C0006F520108DB500108174F0108DE50010854
:1038D00010B590F821302DED028B0446002B52D00C
:1038E000D1ED007AD0ED026A91ED017A91ED026A94
:1038F00091ED048AD1ED078A76EEE76AD0ED037A7E
:1039000077EEC77A90ED047A27EE888A37EE467A0A
:1039100091ED036AA6EE268A91ED056A67EEA88A04
:10392000A6EE078A91ED066A80ED028AE6EE268A07
:1039300091ED086AE6EE078A91ED0A6AC0ED038A06
:1039400067EE867A91ED096AE6EE267A28EEA80AF5
:10395000D1ED0B6AA8EE080AE6EE877AA7EEA70A71
:10396000C0ED047A0FF09EFB9FED081A84ED050A66
:10397000F0EE680AB0EE480AFFF70EFF84ED060A83
:10398000FFF73AFFE061BDEC028B10BD00000000C4
:1039900000234FF07E520360436083600361436104
:1039A00083610362436283620023C260C261C262B8
:1039B00080F83030014902480BF0A4BEE450010801
:1039C000605200202DE9F0412C4904462C480BF0B0
:1039D00099FE2C492A480BF07DFE94ED000A2848F8
:1039E00003210BF0DFFF284925480BF073FE94ED0F
:1039F000010A234803210BF0D5FF244920480BF08E
:103A000069FE94ED020A1E4803210BF0DAFF2049FB
:103A10001B480BF077FE04F10C0504F130081D493A
:103A200017480BF057FE2F460326B7EC010A14483F
:103A300004210BF0B7FF184911480BF04BFE013E73
:103A4000F3D116490E480C350BF05CFE4545E6D126
:103A500013490B480BF03EFE94F83010114B124AFC
:103A60000748002918BF1A4611460BF04BFEBDE867
:103A7000F0410E4902480BF045BE00BF1851010845
:103A80006052002039510108545101085851010871
:103A90005C5101086E5101087155010890440108FC
:103AA0007351010809510108A7430108CF480108D3
:103AB00038B50D4601460848144602F023FB294656
:103AC000054802F033FD2146034802F02FFDBDE812
:103AD0003840014802F01EBB104D0020F8B50F46DB
:103AE00006460146124814461D4602F00BFB3946B5
:103AF0000F4802F01BFD0E48002102F069FDA8B935
:103B00000B482A46314602F0F5FAC0B285420DD183
:103B10002544074802F002FB40B1054802F002FBD1
:103B200004F8010BAC42F4D10120F8BD0020FCE701
:103B3000104D002030B565496548664D85B00BF0E5
:103B4000E1FD654962480BF0DDFD2C21634802F080
:103B500045FC624802F0DEFA0146002851D1FF23FD
:103B60008DF807300DF1070201232C20FFF7B6FF77
:103B700080220B212C20FFF79BFF0F200CF040FA36
:103B800040220D212C20FFF793FF0A200CF038FA79
:103B9000062229212C20FFF78BFF0A200CF030FA97
:103BA00008220B212C20FFF783FF0A200CF028FAB3
:103BB0000F220A212C20FFF77BFF0F200CF020FAA8
:103BC000062302AA01212C20FFF788FFC8B1012398
:103BD0002B70434B43493E482C221A700BF07AFD60
:103BE0009DF807103A4810220BF00CFE3E49384869
:103BF0000BF088FD3D4936480BF084FD012005B0EF
:103C000030BD3B4932480BF07DFD34481E2102F0A7
:103C1000E5FB324802F07EFA0446F8B90146782204
:103C20001E20FFF745FF202201211E20FFF740FF45
:103C3000224602211E20FFF73BFF0F200CF0E0F987
:103C4000062302AA03211E20FFF748FF30B10223FA
:103C50002B70234B27491E221A70C8E726491C489F
:103C60000BF050FD1D480D2102F0B8FB1B4802F07F
:103C700051FA044610BB80220A210D20FFF718FFDD
:103C80000F200CF0BDF901220B210D20FFF710FFD2
:103C90001D2209210D20FFF70BFF0F200CF0B0F9BA
:103CA000062302AA21460D20FFF718FF30B1032397
:103CB0002B700B4B11490D221A7098E70024104904
:103CC00003482C700BF01EFD204698E77C5101083C
:103CD00060520020A84B0020A6510108104D002082
:103CE000A8000020D05101086745010804520108CE
:103CF0001C52010847520108715201089C520108E8
:103D0000BC52010870B56D4B2DED028B1D78012D55
:103D100084B0044642D100238DF807300DF107022C
:103D20002B4609212C20FFF7D9FE062302AA29469B
:103D30002C20FFF7D3FE30B984F82100002004B016
:103D4000BDEC028B70BDBDF908309DF80720DFED9A
:103D50005C6A07EE103ABDF90A3007EE903A029B12
:103D60002360C2F34002BDF90C30A380B8EEC77ADD
:103D700084F82020F8EEE77A87EE268A6584C7EE7D
:103D8000A68A07EE903AB8EEE77A84ED028AC7EE8B
:103D9000267AC4ED038AC4ED047A42E0022D5BD199
:103DA000062302AA03211E20FFF798FE0028C3D095
:103DB000BDF80830BDF80A20BDF80C505BBA19B246
:103DC00052BA6DBA11F5805F2380A28013B265806C
:103DD0002AB207D013F5805F18BF12F5805F0CBFC1
:103DE0000120002007EE901ADFED366A84F82000EB
:103DF000F8EEE77A87EEA68A07EE902AF8EEE77AE1
:103E000084ED028AC7EEA68A07EE903AB8EEE77A0A
:103E10004FF48173C7EE267A6384C4ED038AC4ED40
:103E2000047A28EEA80AA8EE080AA7EEA70A0FF05F
:103E300039F99FED251A84ED050AF0EE680AB0EE17
:103E4000480AFFF7A9FC84ED060AFFF7D5FCE061FC
:103E5000012084F8210072E7032D4FF0000629D1DC
:103E600001230DF1070206210D208DF80760FFF7F1
:103E700035FE062302AA31460D20FFF72FFE00284B
:103E80003FF45AAFBDF908309DF8072007EE103A0D
:103E9000BDF90A3007EE903A029B2360C2F340025C
:103EA000BDF90C30A380B8EEC77A84F82020F3EE79
:103EB0000E6A5FE780F8216040E700BFA84B002052
:103EC0000000164266662E4100000000F0B52DEDA0
:103ED000068B73499FED738ADFED739A8BB00446AE
:103EE00072480BF00FFC724970480BF00BFC7149E3
:103EF0006E480BF007FC70496C480BF003FC6F49EF
:103F00006A480BF0FFFB0CF079F80646022001F03E
:103F10001DF90025F0EE488AB0EE69AAB0EE489A85
:103F2000F0EE69AA43F697270CF068F8831BBB42B2
:103F30000ED9632D4FF003004AD801F007F960490C
:103F40005A480BF0DFFB00200BB0BDEC068BF0BD38
:103F50002422002101A80DF0F0F801A8FFF7D2FEFD
:103F600080B3DDED036A9DED047ADDED057AF4EEB4
:103F7000E6AAF1EE10FAB4EEE69AC8BFF0EE66AA31
:103F8000F1EE10FAB4EEC7AA48BFB0EE669AF1EEB1
:103F900010FAF4EEC78AC8BFB0EE47AAF1EE10FAE5
:103FA000F4EEE79A48BFF0EE478AF1EE10FAB4EE6D
:103FB000E78AC8BFF0EE679AF1EE10FA48BFB0EE9C
:103FC000678A013501F0D8F814200CF019F8ABE736
:103FD00001F0BCF83AEE897AF6EE007A27EE277AFD
:103FE00039EE6A9A84ED007A3AEE287A78EECA8A37
:103FF00027EE277A29EE279A84ED017A39EE887A1E
:1040000068EEA78A27EE277A38EE698A84ED027A6D
:1040100028EE278A39EE287AF0EE086A37EE087A19
:104020004FF07E52C7EE267AE260E2610023236100
:104030006361A36123626362A3620123E262214997
:1040400084F830309FED207A1848B4EEC79AF1EE2C
:1040500010FAC8BFC7EE896AF4EEC78AC8BFC4EDBC
:10406000036AF1EE10FAC8BFC7EEA86AB4EEC78AB9
:10407000C8BFC4ED076AF1EE10FAC4BF87EE887AB4
:1040800084ED0B7A0BF03EFB2046FFF79BFC01F022
:10409000C3F808B9012057E7204601F0EDFCF9E725
:1040A00005530108804FC3C7804FC34760520020AB
:1040B0003153010855530108825301080653010882
:1040C0009E530108D8530108CDCCCC3D37B501250E
:1040D0002B46104800953C22022104F03DFA0E4B7D
:1040E000044638B90D4918700D480BF00BFB2046FB
:1040F00003B030BD1D700B4B00221A700BF07EFF19
:10410000094B1860034804F018FA024804F0B4FDA3
:104110000649E9E7B44B0020B14B002041540108A7
:1041200060520020B04B0020AC4B002089540108A5
:10413000014B1878704700BFB14B00201FB5084BEA
:10414000084A0948CDE901324FF0FF33009340227D
:10415000064B802104F0DEF805B05DF804FB00BFDB
:10416000801A0600A0860100B44B0020104D0020EC
:10417000014804F0FFB800BFB44B002070B51C4CE0
:1041800086B00546204604F0D8F92046012103F008
:10419000FAFC4FF0011363610DF11603039305ABB5
:1041A00002930DF11203019304AB009300231A460E
:1041B0002946204603F0B8FDBDF914300C48C3F180
:1041C00080035A1CA6BF03EBD37343F34F030023B2
:1041D00001262946238266820BF085FA0A220448CA
:1041E000019600927F23002103F031FA06B070BDE2
:1041F000B44B0020124B1B7810B5FBB1114C124888
:10420000FFF7BCFF0F48012103F0BDFC4FF0121374
:104210000E49236120460BF05DFA0D4B0D492361D9
:1042200020460BF057FA0C4B0C49236120460BF04B
:1042300051FA2046BDE8104004F01EBD10BD00BF7D
:10424000B14B0020B44B0020C6540108D1540108E2
:104250000E002200E154010808003000F15401086A
:10426000B24B1B7870B50446002B00F057820BF060
:10427000C5FEAF490B6840F6AB52C31A9342AD4A34
:1042800005D913780860013303F003031370157820
:10429000012D7ED0022DA84E00F0D480002D40F0DC
:1042A000BB81A648FFF76AFFA54BA6491E611846C9
:1042B0000BF010FA94ED050AB4EE400AF1EE10FA94
:1042C00056D6B5EEC00AF1EE10FA51DBDFED9E7A5C
:1042D000B4EEE70AF1EE10FA4AD5022198480BF045
:1042E00061FB9A4996480BF00DFA954A984B99490B
:1042F000136110460BF0EEF994ED070AB4EE400A94
:10430000F1EE10FA0DD6DFED947AB4EEE70AF1EE95
:1043100010FA06DDDFED917AB4EEE70AF1EE10FA5D
:1043200028D48F4986480BF0EDF9854A8D4B8E498C
:10433000136110460BF0CEF994ED0B0AB5EEC00AEE
:10434000F1EE10FA1CDD01217D480BF02BFB8749B3
:104350007B480BF0D7F97A4A854B864913611046A2
:104360000BF0B8F994F8343063B18349744862E0D3
:104370007B49B7E7012172480BF014FB7F49D1E775
:104380007F49E5E794F835300BB17E49EEE77E4989
:10439000ECE76B4E7D48FFF7F1FE7D4B7D493361C5
:1043A00030460BF097F90A22B4F9001030460BF0B2
:1043B00010FA794B7949336130460BF08BF90A22B8
:1043C000B4F9021030460BF004FA754B75493361AD
:1043D00030460BF07FF90A22B4F9041030460BF096
:1043E000F8F9714B7149336130460BF073F994ED74
:1043F000020A294630460BF0D5FA6D4930460BF0DB
:1044000081F96C4B6C49336130460BF063F994EDE4
:10441000030A002130460BF0C5FA684930460BF01C
:1044200059F92169664B3046002908BF19460BF03F
:104430005AF9644930460BF065F9BDE870404048D0
:1044400004F01ABC6048FFF799FE3D4B5F491E61BE
:1044500018460BF03FF994ED080AB4EE400AF1EE6D
:1044600010FA5DD6B5EEC00AF1EE10FA58DBF2EEA6
:104470000C7AB4EEE70AF1EE10FA51D8304829462A
:104480000BF09FFA2E4A324B5149136110460BF044
:1044900021F994ED090AB4EE400AF1EE10FA05D6BE
:1044A000B5EEC00AF1EE10FA80F298802C4924484B
:1044B0000BF028F9224A2B4B4649136110460BF0AA
:1044C00009F994ED0A0AB4EE400AF1EE10FA05D6A5
:1044D000B5EEC00AF1EE10FA80F28C80204918483F
:1044E0000BF010F9164A224B3B49136110460BF0B2
:1044F000F1F894ED070AB4EE400AF1EE10FA0DD689
:10450000DFED157AB4EEE70AF1EE10FA06DDDFED25
:10451000137AB4EEE70AF1EE10FA77D4104925E7E2
:104520000F4907480BF0EEF8ACE700BFB14B002095
:10453000AC4B0020B04B002004000F00C654010813
:10454000B44B00204B5501080000C842BC40010894
:1045500004001B0055550108000020C20000AA42BB
:104560008E4B0108040027005F5501085E410108D9
:10457000040033006955010873550108FB40010828
:10458000C6500108B64501087B550108835501084E
:1045900004000E009255010844000E0096550108D3
:1045A00004001A009A550108040026009E550108CF
:1045B0002640010804003200A655010813400108F6
:1045C0001A4601086745010844410108AE55010833
:1045D000B5550108BC550108C35501080EF088FD0A
:1045E000FDEEC07A4E4817EE901A0A220BF0F1F851
:1045F0004C495CE70EF07CFDFDEEC07A484817EEB2
:10460000901A0A220BF0E5F8474968E7012144486F
:104610000BF0C8F94549A9E64548FFF7AFFD404B07
:1046200044491E6118460BF055F894ED050AB4EEA6
:10463000400AF1EE10FA63D6B5EEC00AF1EE10FAB8
:104640005EDBDFED3D7AB4EEE70AF1EE10FA57D506
:10465000022133480BF0A6F9384931480BF052F8E3
:104660002F4A374B3749136110460BF033F894ED5E
:10467000060AB4EE400AF1EE10FA0DD6DFED327AFA
:10468000B4EEE70AF1EE10FA06DDDFED307AB4EEB3
:10469000E70AF1EE10FA35D42D4921480BF032F833
:1046A0001F4A2C4B2C49136110460BF013F894ED64
:1046B000070AB4EE400AF1EE10FA0DD6DFED277AC4
:1046C000B4EEE70AF1EE10FA06DDDFED257AB4EE7E
:1046D000E70AF1EE10FA1BD41D4911480BF012F84D
:1046E0000F4A204B2049136110460AF0F3FF94F85B
:1046F00036101E4B1E4A002918BF1A46114635E6D1
:104700001349AAE7012106480BF04CF91949C4E7FF
:10471000012103480BF046F90449DEE770BD00BFF4
:10472000B44B002079410108FE480108FB40010814
:10473000CA550108DB5501080000C842BC40010809
:1047400004001B00E6550108000096430000964453
:104750008E4B010804002700F1550108000020C21B
:104760000000AA4204003300FC5501086843010818
:10477000455501089F40010808B50521C2200BF0EE
:104780006BFB054905480AF0BDFFBDE80840044938
:1047900002480AF0B7BF00BF075601086052002068
:1047A0003856010870B505462DED028B1026B0EE87
:1047B000408A0024C2200BF039FB044464200BF033
:1047C0002DFC013EF6D1C4F30F14B4F5805F1FD267
:1047D00007EE904A9FED2C7A2C4B2C80FBEECA7A88
:1047E0001A7B85ED038A67EE877A9FED297AC5EDFE
:1047F000017AF4EEC77AF1EE10FA2A7406D49FED2E
:10480000257AF4EEC77AF1EE10FA06DD0023AB60EC
:104810000020BDEC028B687470BD9FED1F7A38EEEE
:10482000070AB4EEC70AF1EE10FA08D49FED1B7A1E
:10483000B4EEC70AF1EE10FAD8BFB0EE407AD3ED6D
:10484000006A9FED176A77EEE67AD3ED026A67EEAB
:10485000A67AC6EE076AB1EE0C7AA7EEA67AF6EE55
:10486000007AB4EEE77AF1EE10FACFD4F2EE0B7ADA
:10487000B4EEE77AF1EE10FA01DD0A4BC7E785EDF9
:10488000027A0120C5E700BF33335340AC0000205B
:10489000CDCCCC3D66664640339388433393B043DA
:1048A000331395430000604138B5284928482DED61
:1048B000028B0AF027FF40250024C2200BF0B6FA35
:1048C00004440A200BF09CFB013DF6D108EE104A8F
:1048D000DFED207ABBEECD8A28EE278ADFED1E7A47
:1048E00028EE278ADFED1D7AB4EEE78AF1EE10FAA2
:1048F00006D4F0EE047AB4EEE78AF1EE10FA11DD98
:10490000174913480AF0E6FE0321B0EE480A1048A2
:104910000BF048F813490E480AF0F4FE0020BDECF5
:10492000028B38BD104C1149094884ED008A0AF009
:10493000D1FE94ED000A064803210BF033F80C4930
:1049400003480AF0DFFE0120E9E700BF76560108C0
:10495000605200200000803933335340CDCC4C3FAF
:10496000B8560108E3560108AC000020FC560108C7
:104970005E41010838B52B492B480AF0C3FE40249C
:104980000025C2200BF052FA05440A200BF038FB38
:10499000013CF6D107EE905A9FED247A244DDFEDCD
:1049A000256AFBEECD7A67EE877A9FED237A67EE74
:1049B000877A95ED007A37EEC77AB0EEC76AB4EE23
:1049C000E66AF1EE10FA05D51C4917480AF09AFE7E
:1049D000204638BDDFED1A6AC5ED017AC6EE877A4A
:1049E0001849114801242C73C5ED027A0AF072FEB1
:1049F00095ED010A0C4803210AF0D4FF12490A4838
:104A00000AF080FE114908480AF064FE95ED020A9A
:104A1000054803210AF0C6FF0D4903480AF072FE5B
:104A20000C49D2E728570108605200200000803965
:104A3000AC000020CDCCCC3D333353406757010848
:104A4000285C3FC0AB5701085E410108D4570108FC
:104A5000EC570108F2570108064B074907484FF089
:104A60007F521A60064A5A60064A9A6000221A73F8
:104A70000AF048BEAC000020155801086052002022
:104A800025060140246DB9C008B5C2200BF0CEF94F
:104A9000013880B240F6F87398428CBF00200120A4
:104AA00008BD000000487047AC000020084A30B53F
:104AB000034600F1080518685968144603C4083312
:104AC000AB422246F7D1186820601B79237130BDB4
:104AD000AC00002038B5294B1D782DED028B044623
:104AE0002DB90025BDEC028B2846257338BD24481E
:104AF00004F09AFB2248B0EE408A04F04FFBB4EE7B
:104B0000408AF1EE10FAECD6DFED1E7AB4EEE78AB9
:104B1000F1EE10FAE5D4DFED1C7AB4EEE78AF1EE9F
:104B200010FADEDCDFED197AB4EEE70AF1EE10FAE6
:104B3000D7D4DFED177AB4EEE70AF1EE10FAD0DC45
:104B4000DFED147A144B84ED010A88EE277A84EDA8
:104B5000007A93ED007AA7EE678ADFED107A88EE8F
:104B6000277ADFED0F7AB5EEC07AF1EE10FA58BF72
:104B7000F0EE477AC4ED027AB4E700BF204C002083
:104B8000244C00200060EA46009CE047000020C260
:104B90000000AA420000C842BC000020440F1D468D
:104BA0000000000038B51B4B1B7804462BB91A498E
:104BB0001A48BDE838400AF0A5BD194804F034FB96
:104BC000B4EE400AF1EE10FA22D6DFED167AB4EE1A
:104BD000E70AF1EE10FA1BDDDFED137AB4EEE70A17
:104BE000F1EE10FA14D59FED117A114D11490B48D1
:104BF000C0EE077AC4ED007AC5ED007A0AF06AFDCE
:104C0000022195ED000A05480AF0CCFE0A49CFE7DB
:104C10000A49CDE7204C0020595801086052002075
:104C2000244C00200060EA46009CE0470000C84297
:104C3000BC0000208F5801089F400108BD580108A2
:104C40000149024804F02AB9104D0020244C0020EC
:104C5000014804F047B900BF244C0020F7B50023F9
:104C6000664E037066493370074666480AF04AFD8F
:104C70007621654801F0B2FB634801F04BFA6349C5
:104C8000044660480AF03EFD5F48772101F0A6FB2C
:104C90005D4801F03FFAECB1002843D05C49594827
:104CA0000AF030FD5B4957480AF02CFD5A49554837
:104CB0000AF028FD594953480AF024FD5849514843
:104CC0000AF020FD57494F480AF01CFD00242046F9
:104CD00003B0F0BD762554494A480AF0FBFC102287
:104CE000294648480AF090FD4748294601F00AFA4B
:104CF0004548D02101F01AFC434801F00BFA98B165
:104D0000FF244A493F480AF0E5FC3E48102221466C
:104D10000AF078FD582C13D145493A480AF0F2FCC4
:104D2000582415E07725D6E737480122294601F0B7
:104D3000E1F90128E4D1344801F0F4F9C4B2E0E724
:104D4000A4F15603012B0CD83A492E480AF0DAFC9C
:104D500022463948294604F0EAF9044670B9374931
:104D6000B1E7602C01D13649EFE7364925480AF012
:104D7000C9FC631EDBB2FD2BD2D8E9E70423022273
:104D80000321CDE900332C48052304F0E5F8012385
:104D90003D70642033700BF033F927482A4D04F03E
:104DA00043FAB4EE400AF1EE10FA13D6DFED277A9B
:104DB000B4EEE70AF1EE10FA0CDDDFED257AB4EE81
:104DC000E70AF1EE10FA42BF9FED227AC0EE077AB1
:104DD000C5ED007A20490B480AF094FC1F490948A8
:104DE0000AF078FC95ED000A064802210AF0DAFD87
:104DF0001B4904480AF086FC69E700BF204C0020EC
:104E0000F258010860520020104D00200A59010894
:104E1000225901084F5901086B5901089559010899
:104E2000C5590108045A0108595A0108715A010864
:104E3000865A0108995A0108244C0020ED5A0108AD
:104E4000B55A0108D25A0108BC0000200060EA46A9
:104E5000009CE0470000C8422B5B0108465B01084C
:104E60009F40010800220023026042608260C2600D
:104E7000026183828361C1E903330B704B804A6016
:104E80008A600B758B6170470023002283828260E9
:104E9000C2600B704B804A600B75024802490AF0F1
:104EA00031BC00BF605200206B5B010838B50C4676
:104EB000417D61B9002343608360C3607A4B036125
:104EC0004FF4807380ED000A8382826138BD83696C
:104ED000DFED766AD0ED004A9FED756AD0ED025A9B
:104EE0009FED745A90ED044A8261D31A07EE903A0E
:104EF000F8EE677A237887EEA67A70EE647AB4EEDD
:104F0000C67A77EEE55AF1EE10FA54BFF0EE476A32
:104F1000F0EE466A85EEA67AD0ED035ADFED666ABA
:104F2000C0ED017A27EE057AC0ED027AA5EEA67AE9
:104F3000DFED626ADFED625A80ED037AF0EEE77A28
:104F400067EEA66AE4EE256AC0ED046AF7EE086A29
:104F5000F4EEE67AF1EE10FA01DC002B38D00125F0
:104F60000575B2EE046AB0EEC77AC7EE066AF1EED6
:104F7000045AC7EEA54A66EE856AB6EE006AE4EE0C
:104F8000866AB7EE006AF4EEC66AF1EE10FAD8BF90
:104F9000B0EE666AF0EE006AF4EEE67AF1EE10FA30
:104FA00084ED026A06DAB4EEE57AF1EE10FAACBFEF
:104FB00001210021012B15D0022B52D0002B85D1CD
:104FC000002983D0012323706380C4ED017A7DE73B
:104FD00020EE060ADFED3B6A0375A4EEA60A80ED1B
:104FE000000ABEE7638879B394ED017A0133F4EEE9
:104FF000C77A9BB2F1EE10FAC8BFC4ED017A042B58
:1050000063807FF663AF00232375A3692E49E260B6
:1050100001330225A3612D4825700AF05BFB0A22AB
:10502000A1692A480AF0E1FB294928480AF052FB05
:10503000294694ED010A25480AF0B4FC2549234885
:10504000BDE838400AF05EBB23B90023237000237B
:1050500063603BE7013B9BB26380002B7FF436AF7C
:10506000F3E794ED017AF4EEC77AF1EE10FAC8BFD7
:10507000C4ED017A11B10023237527E7237D23B9FD
:105080000123154923752261D9E72369D21A41F218
:1050900087339A427FF61AAF002321702175618011
:1050A00063600E49CBE700BFCDCC4C3D00007A4495
:1050B0000AD7A33B9A99993E3333333F0AD7A33C8F
:1050C00048E17A3F52B87E3F9E5B01086052002063
:1050D000BA5B010826400108C85B0108125C0108A0
:1050E00002289ABF024B53F820000248704700BFC5
:1050F00088640108783A010808B50121C8200AF03F
:10510000ABFE0021C8200AF005FF044B00221A70F4
:105110000AF074FF024B186008BD00BF684C002005
:10512000644C002010B503240121C8200AF0F2FECF
:1051300064200AF065FF0021C8200AF0EBFE64201D
:105140000AF05EFF013CEFD110BD000008B5054B31
:105150001A78824204D018700AF050FF024B18608F
:1051600008BD00BF684C0020644C0020014B18783B
:10517000704700BF684C002008B50AF03FFF244A82
:10518000244B12781B68013AC31A052A3ED8DFE87F
:1051900002F003103B1B23304FF47A72B3FBF2F1A1
:1051A00002FB1131B1F5FA7F2CBF00210121C8208B
:1051B0001BE04FF47A72B3FBF2F102FB1131F929D3
:1051C0008CBF00210121F2E74FF47A72B3FBF2F1B8
:1051D00002FB1131C729F3E7C820B3FBF0F100FB54
:1051E000113163298CBF00210121BDE808400AF07C
:1051F00091BE4FF47A72B3FBF2F102FB1133632BD1
:1052000002D9C83B632BDBE70121D0E70021CEE7C1
:10521000684C0020644C0020014B1878704700BF98
:10522000CC4C0020024B187808B1024B187870471C
:10523000CC4C0020C800002000487047B44C00202F
:10524000004870479C4C002038B5634B1B780446DF
:1052500013B90025284638BD604804F087F9054693
:105260000028F6D021685D480A220AF0BEFA2C21F7
:105270005A480AF03CFA616858480A220AF0B5FA1E
:105280002C2156480AF033FAB4F9081053480A2280
:105290000AF09FFA2C2151480AF029FAB4F90A10B1
:1052A0004E480A220AF095FA2C214C480AF01FFABF
:1052B0000A22B4F90C1049480AF08BFA2C2147480D
:1052C0000AF015FA94ED040A444802210AF06AFB38
:1052D0002C2142480AF00BFA94ED050A3F480221BE
:1052E0000AF060FB2C213D480AF001FA94ED060A11
:1052F0003A4802210AF056FB2C2138480AF0F7F907
:1053000094ED070A354802210AF04CFB2C21334862
:105310000AF0EDF994ED080A304802210AF042FB48
:105320002C212E480AF0E3F994ED090A2B480221BA
:105330000AF038FB2C2129480AF0D9F994ED0A0A21
:10534000264802210AF02EFB2C2124480AF0CFF92E
:1053500094ED0B0A214802210AF024FB2C211F485E
:105360000AF0C5F994ED0C0A1C4802210AF01AFB58
:105370002C211A480AF0BBF994ED0D0A17480221B6
:105380000AF010FB2C2115480AF0B1F994ED0E0A31
:10539000124801210AF006FB2C2110480AF0A7F957
:1053A00094ED0F0A0D4801210AF0FCFA2C210B485C
:1053B0000AF09DF994ED100A084802210AF0F2FA69
:1053C0002C2106480AF093F994ED110A03480221B2
:1053D0000AF0F7FA3EE700BFCC4C0020784C0020E2
:1053E000014804F0C3B800BF784C002030B5134B1F
:1053F0001B788BB0044613B900200BB030BD1049A8
:10540000104804F051FA0028F6D001A80C4A0D49C2
:10541000012304F0D9F901A804F0A8F80028EBD082
:105420003422214601A804F071F8054601A804F0D1
:1054300091F8342DE0D194F83000DEE7CC4C002018
:10544000785C0108784E002030B5184B1B788BB083
:1054500005460C4613B900200BB030BD1449154861
:1054600004F022FA0028F6D001A8114A11490123BC
:1054700004F0AAF901A804F079F80028EBD0294635
:10548000102201A804F042F821460546082201A88E
:1054900004F03CF8044601A804F05CF8082C08BFAE
:1054A000102D0CBF01200020D6E700BFCC4C0020FF
:1054B000855C0108784E0020014804F01BB800BF4D
:1054C000784C002030B51E4D2C688BB040F2E6338E
:1054D0009C420BD818211B4A1B4823460BF08AFD1F
:1054E00019491A4804F0E0F928BB2C60164A1749FC
:1054F000172301A804F068F901A804F037F804465E
:10550000D8B1134901A80AF011F901A803F09AFFD4
:1055100001A804F01FF80F4A0F49002313600F4A37
:1055200013700F480AF0D6F807490D480AF0FEF844
:1055300020460BB030BD0134C8E70A49F1E700BF8F
:10554000C4000020925C0108B44C0020784E00207A
:1055500061650108744C0020A15C0108704C0020BA
:105560002C040020C75C010838B50AF047FD2E4B1B
:105570002E4D18600121C4200AF06EFC0121C420C8
:105580000AF0C8FC2A4A2B4BD1692B4853F821104A
:1055900041669169526953F82110016653F822302F
:1055A0008366002101F09AFC14200AF029FD2348AB
:1055B000C42104F07BF8D8B932200AF021FD1F483D
:1055C000C42104F073F8044690B91D4928701D48A1
:1055D0000AF098F81C491B480AF094F81B4919482E
:1055E0000AF090F81A4917480AF08CF8204638BD9E
:1055F000184A012313702B70174B00221A70FFF703
:1056000061FF18B915490F480AF07CF814490D4894
:105610000AF078F813490B480AF05CF81249094877
:105620000AF084F80124E1E76C4C0020CC4C002007
:105630000C77010834770108004E0020784E0020D6
:10564000F25C01082C040020245D0108555D01086E
:10565000885D0108C8000020704C0020C95D010869
:10566000FD5D0108325E0108B44C002008B50B4B0B
:105670001B7843B10A4B0B4901221A70BDE8084060
:1056800009480AF03FB8FFF76FFF20B1044B074904
:1056900001221A70F2E70649F0E700BFCC4C002067
:1056A000C80000204C5E01082C040020625E010846
:1056B0008B5E010808B5094B094800221A7003F0F7
:1056C00055FF28B1064803F0BDFE054803F042FF30
:1056D000BDE80840034904480AF014B8C800002097
:1056E000784C0020B45E01082C0400202DE9F04322
:1056F000DFF8449299F8003093B004463BB1824BF6
:105700001F7897B90027384613B0BDE8F0830AF038
:1057100075FC7E4B1B68C01A40F6B7339842F1D92E
:10572000FFF722FF0028EAD1ECE7794B1B78002B2A
:105730004DD0784E32684CF24F339A4205D9764AB2
:10574000136801331360FFF7BDFE714A7349DFF838
:10575000EC811723684604F037F8684603F006FF2B
:10576000002839D198F800306D496E48013388F827
:10577000003009F0AFFF66496A4809F0D7FF98F892
:105780000030012B14D9FFF79DFE614A63491723AE
:1057900009A804F019F80A9B01930B9B02930C9B38
:1057A00003930DAB0FCB04AD07C52B70119B089372
:1057B000684603F0DBFE78B998F80030042BA1D9D5
:1057C00089F800005849574809F09CFF9AE7FFF70D
:1057D00079FE0028ADD195E7002301250A22216832
:1057E00088F80030684689F8005009F0FEFF2C2147
:1057F000684609F07CFF0A226168684609F0F5FFF7
:105800002C21684609F073FF94ED020A02216846D4
:105810000AF0C8F82C21684609F069FF94ED030AE4
:10582000294668460AF0BEF82C21684609F05FFF59
:1058300094ED040A294668460AF0B4F82C2168461B
:1058400009F055FF94ED050A294668460AF0AAF8C2
:105850002C21684609F04BFF94ED060A02216846A8
:105860000AF0A0F82C21684609F041FF94ED070AE0
:10587000022168460AF096F82C21684609F037FFA5
:1058800094ED080A022168460AF08CF82C2168463B
:1058900009F02DFF94ED090A294668460AF082F8BE
:1058A0002C21684609F023FF94ED0A0A2946684630
:1058B0000AF078F82C21684609F019FF94ED0B0ADC
:1058C000022168460AF07DF8684603F0BBFD684691
:1058D00003F040FE3368154A2B4433605343934230
:1058E000FFF411AF12490F4809F0F4FE31680D487A
:1058F0000A2209F07AFF0F490A4809F0EBFE044931
:10590000084809F013FFFEE6C80000206C4C002098
:10591000B44C0020744C0020C4000020784E0020BD
:10592000C95E01082C040020E65E0108CDCCCCCC79
:10593000205F0108345F0108CC4C0020704C00202F
:1059400030B5334B1B788BB0002B44D0314803F07B
:105950000DFE28B12F4803F075FD2E4803F0FAFD27
:105960002D4D2C6840F2E6339C420CD818212B4A6E
:105970002B4823460BF03EFB29492A4803F094FFAD
:10598000002830D12C60234D254A2649172301A831
:1059900003F01AFF029B6B60039BAB60049BEB6000
:1059A00005AB0FCB05F1100407C4204600F81C39E5
:1059B000099B2B6203F0DAFD0546B0B91A4A1B4970
:1059C00013781B480133137009F084FE14491848FA
:1059D00009F0ACFE03E0FFF7C7FD0028B6D10025B3
:1059E00028460BB030BD0134BCE71249A4F11C00BD
:1059F00009F09CFEA4F11C0003F024FD0E490C48A4
:105A000009F068FE06490A4809F090FEE8E700BF81
:105A1000CC4C0020784C0020C0000020395F0108E9
:105A20009C4C0020784E0020704C0020485F0108FC
:105A30002C040020946401086F5F010808B50A482F
:105A400003F094FD78B1084803F0FCFC064803F02D
:105A500081FD0649064809F03DFEBDE808400549BC
:105A6000034809F063BE08BD784C0020925F01082E
:105A70002C0400209C4C002030B5124B1B788BB0BE
:105A800005461BB9002420460BB030BD0E4A0F4915
:105A9000172301A803F098FE01A803F067FD044650
:105AA0000028EFD02946342201A803F0B9FC01A850
:105AB00003F0C8FC01A803F04DFD0549054809F0B5
:105AC00021FEE0E7CC4C0020785C0108784E0020F5
:105AD000AB5F01082C04002070B5154B1B788AB011
